:100000001DC02AC029C028C027C00AC125C024C0DD
:1000100023C022C021C020C01FC01EC01DC00000C0
:100020000000370000000000380001030000040059
:1000300002020202020201020408102011241FBE63
:10004000CFEDCDBF20E0A0E6B0E001C01D92A93603
:10005000B207E1F72FD171C1D3CF3FB7F8948091A8
:10006000650090916600A0916700B091680022B78A
:1000700008B601FE05C02F3F19F00196A11DB11D64
:100080003FBFBA2FA92F982F8827BC01CD01620F3F
:10009000711D811D911D43E0660F771F881F991FF9
:1000A0004A95D1F70895CF92DF92EF92FF92CF93C6
:1000B000DF936B017C01D1DFEB01CFDF6C1B7D0B8C
:1000C000683E7340A0F0C114D104E104F10439F496
:1000D000DF91CF91FF90EF90DF90CF90089581E076
:1000E000C81AD108E108F108C851DC4FE6CFC114A5
:1000F000D104E104F10409F7EBCF87FF09C08F7742
:1001000071F1813071F1823071F1833071F18FEFD3
:1001100090E0FC01E65DFF4F3491FC01EA5CFF4F8B
:100120002491FC01E05DFF4FE491EE23B9F033230D
:1001300029F03130E1F48AB58F778ABDF0E0EE0F17
:10014000FF1FEC5DFF4FA591B4918FB7611120C0E7
:10015000F894EC9120952E232C938FBF089585E081
:10016000D7CF82E0D5CF84E0D3CF83E0D1CF323078
:1001700019F48AB58F7DE1CF333021F480B78F7DBC
:1001800080BFDCCF3430D1F68CB58F7D8CBDD6CF1F
:10019000F894EC912E2BE0CFCF93DF9387FF09C02B
:1001A0008F7779F1813079F1823079F1833079F18B
:1001B0008FEF90E0FC01EA5CFF4F2491805D9F4F40
:1001C000FC0184918823D1F090E0880F991FFC01F5
:1001D000E25EFF4FA591B491FC01EC5DFF4FC5912C
:1001E000D491611116C09FB7F8948C91E22FE095DD
:1001F0008E238C932881E223E8839FBFDF91CF91E8
:10020000089585E0D6CF82E0D4CF84E0D2CF83E0DA
:10021000D0CF8FB7F894EC91E22BEC938FBFEECF59
:100220001F920F920FB60F9211242F933F938F932B
:100230009F93AF93BF938091610090916200A091D2
:100240006300B09164003091600026E0230F2D37E9
:1002500068F129E8230F0396A11DB11D20936000CA
:100260008093610090936200A0936300B093640058
:100270008091650090916600A0916700B091680040
:100280000196A11DB11D8093650090936600A09317
:100290006700B0936800BF91AF919F918F913F919C
:1002A0002F910F900FBE0F901F9018950296A11DD1
:1002B000B11DD4CF83E08ABD83BF789489B78260B3
:1002C00089BF80E48CBD8FEF8DBD87EC80BF86E851
:1002D00086B960E081E060DF61E080E05DDF61E0E1
:1002E00082E05ADF61E082E008DFB19BFECF61E08F
:1002F00080E003DF60E177E280E090E0D4DEC5E0FB
:10030000D0E060E080E0F9DE64EF71E080E090E052
:10031000CADE61E080E0F1DE64EF71E080E090E051
:10032000C2DE219771F760E080E0E7DE68EE73E0FF
:0E03300080E090E0B8DE60E0D6CFF894FFCF1A
:00000001FF
